{
  "_format": "hh-sol-artifact-1",
  "contractName": "AlchemonNft",
  "sourceName": "contracts/AlchemonNft.sol",
  "abi": [
    {
      "inputs": [],
      "stateMutability": "nonpayable",
      "type": "constructor"
    },
    {
      "anonymous": false,
      "inputs": [
        {
          "indexed": true,
          "internalType": "address",
          "name": "owner",
          "type": "address"
        },
        {
          "indexed": true,
          "internalType": "address",
          "name": "approved",
          "type": "address"
        },
        {
          "indexed": true,
          "internalType": "uint256",
          "name": "tokenId",
          "type": "uint256"
        }
      ],
      "name": "Approval",
      "type": "event"
    },
    {
      "anonymous": false,
      "inputs": [
        {
          "indexed": true,
          "internalType": "address",
          "name": "owner",
          "type": "address"
        },
        {
          "indexed": true,
          "internalType": "address",
          "name": "operator",
          "type": "address"
        },
        {
          "indexed": false,
          "internalType": "bool",
          "name": "approved",
          "type": "bool"
        }
      ],
      "name": "ApprovalForAll",
      "type": "event"
    },
    {
      "anonymous": false,
      "inputs": [
        {
          "indexed": true,
          "internalType": "address",
          "name": "previousOwner",
          "type": "address"
        },
        {
          "indexed": true,
          "internalType": "address",
          "name": "newOwner",
          "type": "address"
        }
      ],
      "name": "OwnershipTransferred",
      "type": "event"
    },
    {
      "anonymous": false,
      "inputs": [
        {
          "indexed": true,
          "internalType": "address",
          "name": "from",
          "type": "address"
        },
        {
          "indexed": true,
          "internalType": "address",
          "name": "to",
          "type": "address"
        },
        {
          "indexed": true,
          "internalType": "uint256",
          "name": "tokenId",
          "type": "uint256"
        }
      ],
      "name": "Transfer",
      "type": "event"
    },
    {
      "inputs": [],
      "name": "PRICE",
      "outputs": [
        {
          "internalType": "uint256",
          "name": "",
          "type": "uint256"
        }
      ],
      "stateMutability": "view",
      "type": "function"
    },
    {
      "inputs": [
        {
          "internalType": "address",
          "name": "to",
          "type": "address"
        },
        {
          "internalType": "uint256",
          "name": "tokenId",
          "type": "uint256"
        }
      ],
      "name": "approve",
      "outputs": [],
      "stateMutability": "nonpayable",
      "type": "function"
    },
    {
      "inputs": [
        {
          "internalType": "address",
          "name": "owner",
          "type": "address"
        }
      ],
      "name": "balanceOf",
      "outputs": [
        {
          "internalType": "uint256",
          "name": "",
          "type": "uint256"
        }
      ],
      "stateMutability": "view",
      "type": "function"
    },
    {
      "inputs": [
        {
          "internalType": "uint256",
          "name": "parent1Id",
          "type": "uint256"
        },
        {
          "internalType": "uint256",
          "name": "parent2Id",
          "type": "uint256"
        }
      ],
      "name": "breed",
      "outputs": [],
      "stateMutability": "nonpayable",
      "type": "function"
    },
    {
      "inputs": [
        {
          "internalType": "uint256",
          "name": "tokenId",
          "type": "uint256"
        },
        {
          "internalType": "uint256",
          "name": "generation",
          "type": "uint256"
        }
      ],
      "name": "generateMetadata",
      "outputs": [
        {
          "internalType": "string",
          "name": "",
          "type": "string"
        }
      ],
      "stateMutability": "pure",
      "type": "function"
    },
    {
      "inputs": [
        {
          "internalType": "uint256",
          "name": "tokenId",
          "type": "uint256"
        }
      ],
      "name": "getApproved",
      "outputs": [
        {
          "internalType": "address",
          "name": "",
          "type": "address"
        }
      ],
      "stateMutability": "view",
      "type": "function"
    },
    {
      "inputs": [
        {
          "internalType": "address",
          "name": "owner",
          "type": "address"
        },
        {
          "internalType": "address",
          "name": "operator",
          "type": "address"
        }
      ],
      "name": "isApprovedForAll",
      "outputs": [
        {
          "internalType": "bool",
          "name": "",
          "type": "bool"
        }
      ],
      "stateMutability": "view",
      "type": "function"
    },
    {
      "inputs": [
        {
          "internalType": "uint256",
          "name": "_count",
          "type": "uint256"
        }
      ],
      "name": "mintGenesis",
      "outputs": [],
      "stateMutability": "payable",
      "type": "function"
    },
    {
      "inputs": [],
      "name": "name",
      "outputs": [
        {
          "internalType": "string",
          "name": "",
          "type": "string"
        }
      ],
      "stateMutability": "view",
      "type": "function"
    },
    {
      "inputs": [],
      "name": "owner",
      "outputs": [
        {
          "internalType": "address",
          "name": "",
          "type": "address"
        }
      ],
      "stateMutability": "view",
      "type": "function"
    },
    {
      "inputs": [
        {
          "internalType": "uint256",
          "name": "tokenId",
          "type": "uint256"
        }
      ],
      "name": "ownerOf",
      "outputs": [
        {
          "internalType": "address",
          "name": "",
          "type": "address"
        }
      ],
      "stateMutability": "view",
      "type": "function"
    },
    {
      "inputs": [],
      "name": "renounceOwnership",
      "outputs": [],
      "stateMutability": "nonpayable",
      "type": "function"
    },
    {
      "inputs": [
        {
          "internalType": "address",
          "name": "from",
          "type": "address"
        },
        {
          "internalType": "address",
          "name": "to",
          "type": "address"
        },
        {
          "internalType": "uint256",
          "name": "tokenId",
          "type": "uint256"
        }
      ],
      "name": "safeTransferFrom",
      "outputs": [],
      "stateMutability": "nonpayable",
      "type": "function"
    },
    {
      "inputs": [
        {
          "internalType": "address",
          "name": "from",
          "type": "address"
        },
        {
          "internalType": "address",
          "name": "to",
          "type": "address"
        },
        {
          "internalType": "uint256",
          "name": "tokenId",
          "type": "uint256"
        },
        {
          "internalType": "bytes",
          "name": "data",
          "type": "bytes"
        }
      ],
      "name": "safeTransferFrom",
      "outputs": [],
      "stateMutability": "nonpayable",
      "type": "function"
    },
    {
      "inputs": [
        {
          "internalType": "address",
          "name": "operator",
          "type": "address"
        },
        {
          "internalType": "bool",
          "name": "approved",
          "type": "bool"
        }
      ],
      "name": "setApprovalForAll",
      "outputs": [],
      "stateMutability": "nonpayable",
      "type": "function"
    },
    {
      "inputs": [
        {
          "internalType": "bytes4",
          "name": "interfaceId",
          "type": "bytes4"
        }
      ],
      "name": "supportsInterface",
      "outputs": [
        {
          "internalType": "bool",
          "name": "",
          "type": "bool"
        }
      ],
      "stateMutability": "view",
      "type": "function"
    },
    {
      "inputs": [],
      "name": "symbol",
      "outputs": [
        {
          "internalType": "string",
          "name": "",
          "type": "string"
        }
      ],
      "stateMutability": "view",
      "type": "function"
    },
    {
      "inputs": [
        {
          "internalType": "uint256",
          "name": "index",
          "type": "uint256"
        }
      ],
      "name": "tokenByIndex",
      "outputs": [
        {
          "internalType": "uint256",
          "name": "",
          "type": "uint256"
        }
      ],
      "stateMutability": "view",
      "type": "function"
    },
    {
      "inputs": [
        {
          "internalType": "address",
          "name": "owner",
          "type": "address"
        },
        {
          "internalType": "uint256",
          "name": "index",
          "type": "uint256"
        }
      ],
      "name": "tokenOfOwnerByIndex",
      "outputs": [
        {
          "internalType": "uint256",
          "name": "",
          "type": "uint256"
        }
      ],
      "stateMutability": "view",
      "type": "function"
    },
    {
      "inputs": [
        {
          "internalType": "uint256",
          "name": "tokenId",
          "type": "uint256"
        }
      ],
      "name": "tokenURI",
      "outputs": [
        {
          "internalType": "string",
          "name": "",
          "type": "string"
        }
      ],
      "stateMutability": "view",
      "type": "function"
    },
    {
      "inputs": [
        {
          "internalType": "address",
          "name": "_owner",
          "type": "address"
        }
      ],
      "name": "tokensOfOwner",
      "outputs": [
        {
          "internalType": "uint256[]",
          "name": "",
          "type": "uint256[]"
        }
      ],
      "stateMutability": "view",
      "type": "function"
    },
    {
      "inputs": [],
      "name": "totalSupply",
      "outputs": [
        {
          "internalType": "uint256",
          "name": "",
          "type": "uint256"
        }
      ],
      "stateMutability": "view",
      "type": "function"
    },
    {
      "inputs": [
        {
          "internalType": "address",
          "name": "from",
          "type": "address"
        },
        {
          "internalType": "address",
          "name": "to",
          "type": "address"
        },
        {
          "internalType": "uint256",
          "name": "tokenId",
          "type": "uint256"
        }
      ],
      "name": "transferFrom",
      "outputs": [],
      "stateMutability": "nonpayable",
      "type": "function"
    },
    {
      "inputs": [
        {
          "internalType": "address",
          "name": "newOwner",
          "type": "address"
        }
      ],
      "name": "transferOwnership",
      "outputs": [],
      "stateMutability": "nonpayable",
      "type": "function"
    },
    {
      "inputs": [],
      "name": "withdraw",
      "outputs": [],
      "stateMutability": "payable",
      "type": "function"
    }
  ],
  "bytecode": "0x60806040523480156200001157600080fd5b506040518060400160405280600881526020017f416c6368656d6f6e0000000000000000000000000000000000000000000000008152506040518060400160405280600481526020017f416c63680000000000000000000000000000000000000000000000000000000081525081600090816200008f919062000412565b508060019081620000a1919062000412565b505050620000c4620000b8620000ca60201b60201c565b620000d260201b60201c565b620004f9565b600033905090565b6000600b60009054906101000a900473ffffffffffffffffffffffffffffffffffffffff16905081600b60006101000a81548173ffffffffffffffffffffffffffffffffffffffff021916908373ffffffffffffffffffffffffffffffffffffffff1602179055508173ffffffffffffffffffffffffffffffffffffffff168173ffffffffffffffffffffffffffffffffffffffff167f8be0079c531659141344cd1fd0a4f28419497f9722a3daafe3b4186f6b6457e060405160405180910390a35050565b600081519050919050565b7f4e487b7100000000000000000000000000000000000000000000000000000000600052604160045260246000fd5b7f4e487b7100000000000000000000000000000000000000000000000000000000600052602260045260246000fd5b600060028204905060018216806200021a57607f821691505b60208210810362000230576200022f620001d2565b5b50919050565b60008190508160005260206000209050919050565b60006020601f8301049050919050565b600082821b905092915050565b6000600883026200029a7fffffffffffffffffffffffffffffffffffffffffffffffffffffffffffffffff826200025b565b620002a686836200025b565b95508019841693508086168417925050509392505050565b6000819050919050565b6000819050919050565b6000620002f3620002ed620002e784620002be565b620002c8565b620002be565b9050919050565b6000819050919050565b6200030f83620002d2565b620003276200031e82620002fa565b84845462000268565b825550505050565b600090565b6200033e6200032f565b6200034b81848462000304565b505050565b5b8181101562000373576200036760008262000334565b60018101905062000351565b5050565b601f821115620003c2576200038c8162000236565b62000397846200024b565b81016020851015620003a7578190505b620003bf620003b6856200024b565b83018262000350565b50505b505050565b600082821c905092915050565b6000620003e760001984600802620003c7565b1980831691505092915050565b6000620004028383620003d4565b9150826002028217905092915050565b6200041d8262000198565b67ffffffffffffffff811115620004395762000438620001a3565b5b62000445825462000201565b6200045282828562000377565b600060209050601f8311600181146200048a576000841562000475578287015190505b620004818582620003f4565b865550620004f1565b601f1984166200049a8662000236565b60005b82811015620004c4578489015182556001820191506020850194506020810190506200049d565b86831015620004e45784890151620004e0601f891682620003d4565b8355505b6001600288020188555050505b505050505050565b6149a680620005096000396000f3fe6080604052600436106101665760003560e01c806370a08231116100d1578063a22cb4651161008a578063d9ecad7b11610064578063d9ecad7b14610555578063dff632431461057e578063e985e9c51461059a578063f2fde38b146105d757610166565b8063a22cb465146104c6578063b88d4fde146104ef578063c87b56dd1461051857610166565b806370a08231146103b4578063715018a6146103f15780638462151c146104085780638d859f3e146104455780638da5cb5b1461047057806395d89b411461049b57610166565b80632f745c59116101235780632f745c591461028d57806330800991146102ca5780633ccfd60b1461030757806342842e0e146103115780634f6ccce71461033a5780636352211e1461037757610166565b806301ffc9a71461016b57806306fdde03146101a8578063081812fc146101d3578063095ea7b31461021057806318160ddd1461023957806323b872dd14610264575b600080fd5b34801561017757600080fd5b50610192600480360381019061018d9190612a81565b610600565b60405161019f9190612ac9565b60405180910390f35b3480156101b457600080fd5b506101bd610612565b6040516101ca9190612b74565b60405180910390f35b3480156101df57600080fd5b506101fa60048036038101906101f59190612bcc565b6106a4565b6040516102079190612c3a565b60405180910390f35b34801561021c57600080fd5b5061023760048036038101906102329190612c81565b6106ea565b005b34801561024557600080fd5b5061024e610801565b60405161025b9190612cd0565b60405180910390f35b34801561027057600080fd5b5061028b60048036038101906102869190612ceb565b61080e565b005b34801561029957600080fd5b506102b460048036038101906102af9190612c81565b61086e565b6040516102c19190612cd0565b60405180910390f35b3480156102d657600080fd5b506102f160048036038101906102ec9190612d3e565b610913565b6040516102fe9190612b74565b60405180910390f35b61030f6109c3565b005b34801561031d57600080fd5b5061033860048036038101906103339190612ceb565b610ac3565b005b34801561034657600080fd5b50610361600480360381019061035c9190612bcc565b610ae3565b60405161036e9190612cd0565b60405180910390f35b34801561038357600080fd5b5061039e60048036038101906103999190612bcc565b610b54565b6040516103ab9190612c3a565b60405180910390f35b3480156103c057600080fd5b506103db60048036038101906103d69190612d7e565b610bda565b6040516103e89190612cd0565b60405180910390f35b3480156103fd57600080fd5b50610406610c91565b005b34801561041457600080fd5b5061042f600480360381019061042a9190612d7e565b610ca5565b60405161043c9190612e69565b60405180910390f35b34801561045157600080fd5b5061045a610d53565b6040516104679190612cd0565b60405180910390f35b34801561047c57600080fd5b50610485610d5e565b6040516104929190612c3a565b60405180910390f35b3480156104a757600080fd5b506104b0610d88565b6040516104bd9190612b74565b60405180910390f35b3480156104d257600080fd5b506104ed60048036038101906104e89190612eb7565b610e1a565b005b3480156104fb57600080fd5b506105166004803603810190610511919061302c565b610e30565b005b34801561052457600080fd5b5061053f600480360381019061053a9190612bcc565b610e92565b60405161054c9190612b74565b60405180910390f35b34801561056157600080fd5b5061057c60048036038101906105779190612d3e565b610ea4565b005b61059860048036038101906105939190612bcc565b610fee565b005b3480156105a657600080fd5b506105c160048036038101906105bc91906130af565b61107c565b6040516105ce9190612ac9565b60405180910390f35b3480156105e357600080fd5b506105fe60048036038101906105f99190612d7e565b611110565b005b600061060b82611193565b9050919050565b6060600080546106219061311e565b80601f016020809104026020016040519081016040528092919081815260200182805461064d9061311e565b801561069a5780601f1061066f5761010080835404028352916020019161069a565b820191906000526020600020905b81548152906001019060200180831161067d57829003601f168201915b5050505050905090565b60006106af8261120d565b6004600083815260200190815260200160002060009054906101000a900473ffffffffffffffffffffffffffffffffffffffff169050919050565b60006106f582610b54565b90508073ffffffffffffffffffffffffffffffffffffffff168373ffffffffffffffffffffffffffffffffffffffff1603610765576040517f08c379a000000000000000000000000000000000000000000000000000000000815260040161075c906131c1565b60405180910390fd5b8073ffffffffffffffffffffffffffffffffffffffff16610784611258565b73ffffffffffffffffffffffffffffffffffffffff1614806107b357506107b2816107ad611258565b61107c565b5b6107f2576040517f08c379a00000000000000000000000000000000000000000000000000000000081526004016107e990613253565b60405180910390fd5b6107fc8383611260565b505050565b6000600880549050905090565b61081f610819611258565b82611319565b61085e576040517f08c379a0000000000000000000000000000000000000000000000000000000008152600401610855906132e5565b60405180910390fd5b6108698383836113ae565b505050565b600061087983610bda565b82106108ba576040517f08c379a00000000000000000000000000000000000000000000000000000000081526004016108b190613377565b60405180910390fd5b600660008473ffffffffffffffffffffffffffffffffffffffff1673ffffffffffffffffffffffffffffffffffffffff168152602001908152602001600020600083815260200190815260200160002054905092915050565b60606000610920846116a7565b610929846116a7565b60405160200161093a9291906137af565b60405160208183030381529060405290506000610991610959866116a7565b61096284611775565b61096b876116a7565b60405160200161097d939291906139cd565b604051602081830303815290604052611775565b90506000816040516020016109a69190613a76565b604051602081830303815290604052905080935050505092915050565b6109cb6118d8565b600047905060008111610a13576040517f08c379a0000000000000000000000000000000000000000000000000000000008152600401610a0a90613ae4565b60405180910390fd5b60003373ffffffffffffffffffffffffffffffffffffffff1682604051610a3990613b35565b60006040518083038185875af1925050503d8060008114610a76576040519150601f19603f3d011682016040523d82523d6000602084013e610a7b565b606091505b5050905080610abf576040517f08c379a0000000000000000000000000000000000000000000000000000000008152600401610ab690613b96565b60405180910390fd5b5050565b610ade83838360405180602001604052806000815250610e30565b505050565b6000610aed610801565b8210610b2e576040517f08c379a0000000000000000000000000000000000000000000000000000000008152600401610b2590613c28565b60405180910390fd5b60088281548110610b4257610b41613c48565b5b90600052602060002001549050919050565b600080610b6083611956565b9050600073ffffffffffffffffffffffffffffffffffffffff168173ffffffffffffffffffffffffffffffffffffffff1603610bd1576040517f08c379a0000000000000000000000000000000000000000000000000000000008152600401610bc890613cc3565b60405180910390fd5b80915050919050565b60008073ffffffffffffffffffffffffffffffffffffffff168273ffffffffffffffffffffffffffffffffffffffff1603610c4a576040517f08c379a0000000000000000000000000000000000000000000000000000000008152600401610c4190613d55565b60405180910390fd5b600360008373ffffffffffffffffffffffffffffffffffffffff1673ffffffffffffffffffffffffffffffffffffffff168152602001908152602001600020549050919050565b610c996118d8565b610ca36000611993565b565b60606000610cb283610bda565b905060008167ffffffffffffffff811115610cd057610ccf612f01565b5b604051908082528060200260200182016040528015610cfe5781602001602082028036833780820191505090505b50905060005b82811015610d4857610d16858261086e565b828281518110610d2957610d28613c48565b5b6020026020010181815250508080610d4090613da4565b915050610d04565b508092505050919050565b6601c6bf5263400081565b6000600b60009054906101000a900473ffffffffffffffffffffffffffffffffffffffff16905090565b606060018054610d979061311e565b80601f0160208091040260200160405190810160405280929190818152602001828054610dc39061311e565b8015610e105780601f10610de557610100808354040283529160200191610e10565b820191906000526020600020905b815481529060010190602001808311610df357829003601f168201915b5050505050905090565b610e2c610e25611258565b8383611a59565b5050565b610e41610e3b611258565b83611319565b610e80576040517f08c379a0000000000000000000000000000000000000000000000000000000008152600401610e77906132e5565b60405180910390fd5b610e8c84848484611bc5565b50505050565b6060610e9d82611c21565b9050919050565b808203610ee6576040517f08c379a0000000000000000000000000000000000000000000000000000000008152600401610edd90613e38565b60405180910390fd5b3373ffffffffffffffffffffffffffffffffffffffff16610f0683610b54565b73ffffffffffffffffffffffffffffffffffffffff16148015610f5c57503373ffffffffffffffffffffffffffffffffffffffff16610f4482610b54565b73ffffffffffffffffffffffffffffffffffffffff16145b610f9b576040517f08c379a0000000000000000000000000000000000000000000000000000000008152600401610f9290613ea4565b60405180910390fd5b6000818310610fb857600183610fb19190613ec4565b9050610fc8565b600182610fc59190613ec4565b90505b6000610fdd610fd7600c611d33565b83610913565b9050610fe881611d41565b50505050565b6601c6bf52634000341015611038576040517f08c379a000000000000000000000000000000000000000000000000000000000815260040161102f90613f6a565b60405180910390fd5b60005b81811015611078576000611059611052600c611d33565b6000610913565b905061106481611d41565b50808061107090613da4565b91505061103b565b5050565b6000600560008473ffffffffffffffffffffffffffffffffffffffff1673ffffffffffffffffffffffffffffffffffffffff16815260200190815260200160002060008373ffffffffffffffffffffffffffffffffffffffff1673ffffffffffffffffffffffffffffffffffffffff16815260200190815260200160002060009054906101000a900460ff16905092915050565b6111186118d8565b600073ffffffffffffffffffffffffffffffffffffffff168173ffffffffffffffffffffffffffffffffffffffff1603611187576040517f08c379a000000000000000000000000000000000000000000000000000000000815260040161117e90613ffc565b60405180910390fd5b61119081611993565b50565b60007f780e9d63000000000000000000000000000000000000000000000000000000007bffffffffffffffffffffffffffffffffffffffffffffffffffffffff1916827bffffffffffffffffffffffffffffffffffffffffffffffffffffffff19161480611206575061120582611d71565b5b9050919050565b61121681611e53565b611255576040517f08c379a000000000000000000000000000000000000000000000000000000000815260040161124c90613cc3565b60405180910390fd5b50565b600033905090565b816004600083815260200190815260200160002060006101000a81548173ffffffffffffffffffffffffffffffffffffffff021916908373ffffffffffffffffffffffffffffffffffffffff160217905550808273ffffffffffffffffffffffffffffffffffffffff166112d383610b54565b73ffffffffffffffffffffffffffffffffffffffff167f8c5be1e5ebec7d5bd14f71427d1e84f3dd0314c0f7b2291e5b200ac8c7c3b92560405160405180910390a45050565b60008061132583610b54565b90508073ffffffffffffffffffffffffffffffffffffffff168473ffffffffffffffffffffffffffffffffffffffff1614806113675750611366818561107c565b5b806113a557508373ffffffffffffffffffffffffffffffffffffffff1661138d846106a4565b73ffffffffffffffffffffffffffffffffffffffff16145b91505092915050565b8273ffffffffffffffffffffffffffffffffffffffff166113ce82610b54565b73ffffffffffffffffffffffffffffffffffffffff1614611424576040517f08c379a000000000000000000000000000000000000000000000000000000000815260040161141b9061408e565b60405180910390fd5b600073ffffffffffffffffffffffffffffffffffffffff168273ffffffffffffffffffffffffffffffffffffffff1603611493576040517f08c379a000000000000000000000000000000000000000000000000000000000815260040161148a90614120565b60405180910390fd5b6114a08383836001611e94565b8273ffffffffffffffffffffffffffffffffffffffff166114c082610b54565b73ffffffffffffffffffffffffffffffffffffffff1614611516576040517f08c379a000000000000000000000000000000000000000000000000000000000815260040161150d9061408e565b60405180910390fd5b6004600082815260200190815260200160002060006101000a81549073ffffffffffffffffffffffffffffffffffffffff02191690556001600360008573ffffffffffffffffffffffffffffffffffffffff1673ffffffffffffffffffffffffffffffffffffffff168152602001908152602001600020600082825403925050819055506001600360008473ffffffffffffffffffffffffffffffffffffffff1673ffffffffffffffffffffffffffffffffffffffff16815260200190815260200160002060008282540192505081905550816002600083815260200190815260200160002060006101000a81548173ffffffffffffffffffffffffffffffffffffffff021916908373ffffffffffffffffffffffffffffffffffffffff160217905550808273ffffffffffffffffffffffffffffffffffffffff168473ffffffffffffffffffffffffffffffffffffffff167fddf252ad1be2c89b69c2b068fc378daa952ba7f163c4a11628f55a4df523b3ef60405160405180910390a46116a28383836001611ea6565b505050565b6060600060016116b684611eac565b01905060008167ffffffffffffffff8111156116d5576116d4612f01565b5b6040519080825280601f01601f1916602001820160405280156117075781602001600182028036833780820191505090505b509050600082602001820190505b60011561176a578080600190039150507f3031323334353637383961626364656600000000000000000000000000000000600a86061a8153600a858161175e5761175d614140565b5b04945060008503611715575b819350505050919050565b60606000825103611797576040518060200160405280600081525090506118d3565b600060405180606001604052806040815260200161493160409139905060006003600285516117c69190613ec4565b6117d0919061416f565b60046117dc91906141a0565b67ffffffffffffffff8111156117f5576117f4612f01565b5b6040519080825280601f01601f1916602001820160405280156118275781602001600182028036833780820191505090505b509050600182016020820185865187015b80821015611893576003820191508151603f8160121c168501518453600184019350603f81600c1c168501518453600184019350603f8160061c168501518453600184019350603f8116850151845360018401935050611838565b50506003865106600181146118af57600281146118c2576118ca565b603d6001830353603d60028303536118ca565b603d60018303535b50505080925050505b919050565b6118e0611258565b73ffffffffffffffffffffffffffffffffffffffff166118fe610d5e565b73ffffffffffffffffffffffffffffffffffffffff1614611954576040517f08c379a000000000000000000000000000000000000000000000000000000000815260040161194b9061422e565b60405180910390fd5b565b60006002600083815260200190815260200160002060009054906101000a900473ffffffffffffffffffffffffffffffffffffffff169050919050565b6000600b60009054906101000a900473ffffffffffffffffffffffffffffffffffffffff16905081600b60006101000a81548173ffffffffffffffffffffffffffffffffffffffff021916908373ffffffffffffffffffffffffffffffffffffffff1602179055508173ffffffffffffffffffffffffffffffffffffffff168173ffffffffffffffffffffffffffffffffffffffff167f8be0079c531659141344cd1fd0a4f28419497f9722a3daafe3b4186f6b6457e060405160405180910390a35050565b8173ffffffffffffffffffffffffffffffffffffffff168373ffffffffffffffffffffffffffffffffffffffff1603611ac7576040517f08c379a0000000000000000000000000000000000000000000000000000000008152600401611abe9061429a565b60405180910390fd5b80600560008573ffffffffffffffffffffffffffffffffffffffff1673ffffffffffffffffffffffffffffffffffffffff16815260200190815260200160002060008473ffffffffffffffffffffffffffffffffffffffff1673ffffffffffffffffffffffffffffffffffffffff16815260200190815260200160002060006101000a81548160ff0219169083151502179055508173ffffffffffffffffffffffffffffffffffffffff168373ffffffffffffffffffffffffffffffffffffffff167f17307eab39ab6107e8899845ad3d59bd9653f200f220920489ca2b5937696c3183604051611bb89190612ac9565b60405180910390a3505050565b611bd08484846113ae565b611bdc84848484611fff565b611c1b576040517f08c379a0000000000000000000000000000000000000000000000000000000008152600401611c129061432c565b60405180910390fd5b50505050565b6060611c2c8261120d565b6000600a60008481526020019081526020016000208054611c4c9061311e565b80601f0160208091040260200160405190810160405280929190818152602001828054611c789061311e565b8015611cc55780601f10611c9a57610100808354040283529160200191611cc5565b820191906000526020600020905b815481529060010190602001808311611ca857829003601f168201915b505050505090506000611cd6612186565b90506000815103611ceb578192505050611d2e565b600082511115611d20578082604051602001611d0892919061434c565b60405160208183030381529060405292505050611d2e565b611d298461219d565b925050505b919050565b600081600001549050919050565b6000611d4d600c611d33565b9050611d593382612205565b611d638183612223565b611d6d600c612290565b5050565b60007f80ac58cd000000000000000000000000000000000000000000000000000000007bffffffffffffffffffffffffffffffffffffffffffffffffffffffff1916827bffffffffffffffffffffffffffffffffffffffffffffffffffffffff19161480611e3c57507f5b5e139f000000000000000000000000000000000000000000000000000000007bffffffffffffffffffffffffffffffffffffffffffffffffffffffff1916827bffffffffffffffffffffffffffffffffffffffffffffffffffffffff1916145b80611e4c5750611e4b826122a6565b5b9050919050565b60008073ffffffffffffffffffffffffffffffffffffffff16611e7583611956565b73ffffffffffffffffffffffffffffffffffffffff1614159050919050565b611ea084848484612310565b50505050565b50505050565b600080600090507a184f03e93ff9f4daa797ed6e38ed64bf6a1f0100000000000000008310611f0a577a184f03e93ff9f4daa797ed6e38ed64bf6a1f0100000000000000008381611f0057611eff614140565b5b0492506040810190505b6d04ee2d6d415b85acef81000000008310611f47576d04ee2d6d415b85acef81000000008381611f3d57611f3c614140565b5b0492506020810190505b662386f26fc100008310611f7657662386f26fc100008381611f6c57611f6b614140565b5b0492506010810190505b6305f5e1008310611f9f576305f5e1008381611f9557611f94614140565b5b0492506008810190505b6127108310611fc4576127108381611fba57611fb9614140565b5b0492506004810190505b60648310611fe75760648381611fdd57611fdc614140565b5b0492506002810190505b600a8310611ff6576001810190505b80915050919050565b60006120208473ffffffffffffffffffffffffffffffffffffffff1661246e565b15612179578373ffffffffffffffffffffffffffffffffffffffff1663150b7a02612049611258565b8786866040518563ffffffff1660e01b815260040161206b94939291906143c5565b6020604051808303816000875af19250505080156120a757506040513d601f19601f820116820180604052508101906120a49190614426565b60015b612129573d80600081146120d7576040519150601f19603f3d011682016040523d82523d6000602084013e6120dc565b606091505b506000815103612121576040517f08c379a00000000000000000000000000000000000000000000000000000000081526004016121189061432c565b60405180910390fd5b805181602001fd5b63150b7a0260e01b7bffffffffffffffffffffffffffffffffffffffffffffffffffffffff1916817bffffffffffffffffffffffffffffffffffffffffffffffffffffffff19161491505061217e565b600190505b949350505050565b606060405180602001604052806000815250905090565b60606121a88261120d565b60006121b2612186565b905060008151116121d257604051806020016040528060008152506121fd565b806121dc846116a7565b6040516020016121ed92919061434c565b6040516020818303038152906040525b915050919050565b61221f828260405180602001604052806000815250612491565b5050565b61222c82611e53565b61226b576040517f08c379a0000000000000000000000000000000000000000000000000000000008152600401612262906144c5565b60405180910390fd5b80600a6000848152602001908152602001600020908161228b9190614691565b505050565b6001816000016000828254019250508190555050565b60007f01ffc9a7000000000000000000000000000000000000000000000000000000007bffffffffffffffffffffffffffffffffffffffffffffffffffffffff1916827bffffffffffffffffffffffffffffffffffffffffffffffffffffffff1916149050919050565b61231c848484846124ec565b6001811115612360576040517f08c379a0000000000000000000000000000000000000000000000000000000008152600401612357906147d5565b60405180910390fd5b6000829050600073ffffffffffffffffffffffffffffffffffffffff168573ffffffffffffffffffffffffffffffffffffffff16036123a7576123a2816124f2565b6123e6565b8373ffffffffffffffffffffffffffffffffffffffff168573ffffffffffffffffffffffffffffffffffffffff16146123e5576123e4858261253b565b5b5b600073ffffffffffffffffffffffffffffffffffffffff168473ffffffffffffffffffffffffffffffffffffffff160361242857612423816126a8565b612467565b8473ffffffffffffffffffffffffffffffffffffffff168473ffffffffffffffffffffffffffffffffffffffff1614612466576124658482612779565b5b5b5050505050565b6000808273ffffffffffffffffffffffffffffffffffffffff163b119050919050565b61249b83836127f8565b6124a86000848484611fff565b6124e7576040517f08c379a00000000000000000000000000000000000000000000000000000000081526004016124de9061432c565b60405180910390fd5b505050565b50505050565b6008805490506009600083815260200190815260200160002081905550600881908060018154018082558091505060019003906000526020600020016000909190919091505550565b6000600161254884610bda565b61255291906147f5565b9050600060076000848152602001908152602001600020549050818114612637576000600660008673ffffffffffffffffffffffffffffffffffffffff1673ffffffffffffffffffffffffffffffffffffffff168152602001908152602001600020600084815260200190815260200160002054905080600660008773ffffffffffffffffffffffffffffffffffffffff1673ffffffffffffffffffffffffffffffffffffffff168152602001908152602001600020600084815260200190815260200160002081905550816007600083815260200190815260200160002081905550505b6007600084815260200190815260200160002060009055600660008573ffffffffffffffffffffffffffffffffffffffff1673ffffffffffffffffffffffffffffffffffffffff16815260200190815260200160002060008381526020019081526020016000206000905550505050565b600060016008805490506126bc91906147f5565b90506000600960008481526020019081526020016000205490506000600883815481106126ec576126eb613c48565b5b90600052602060002001549050806008838154811061270e5761270d613c48565b5b90600052602060002001819055508160096000838152602001908152602001600020819055506009600085815260200190815260200160002060009055600880548061275d5761275c614829565b5b6001900381819060005260206000200160009055905550505050565b600061278483610bda565b905081600660008573ffffffffffffffffffffffffffffffffffffffff1673ffffffffffffffffffffffffffffffffffffffff168152602001908152602001600020600083815260200190815260200160002081905550806007600084815260200190815260200160002081905550505050565b600073ffffffffffffffffffffffffffffffffffffffff168273ffffffffffffffffffffffffffffffffffffffff1603612867576040517f08c379a000000000000000000000000000000000000000000000000000000000815260040161285e906148a4565b60405180910390fd5b61287081611e53565b156128b0576040517f08c379a00000000000000000000000000000000000000000000000000000000081526004016128a790614910565b60405180910390fd5b6128be600083836001611e94565b6128c781611e53565b15612907576040517f08c379a00000000000000000000000000000000000000000000000000000000081526004016128fe90614910565b60405180910390fd5b6001600360008473ffffffffffffffffffffffffffffffffffffffff1673ffffffffffffffffffffffffffffffffffffffff16815260200190815260200160002060008282540192505081905550816002600083815260200190815260200160002060006101000a81548173ffffffffffffffffffffffffffffffffffffffff021916908373ffffffffffffffffffffffffffffffffffffffff160217905550808273ffffffffffffffffffffffffffffffffffffffff16600073ffffffffffffffffffffffffffffffffffffffff167fddf252ad1be2c89b69c2b068fc378daa952ba7f163c4a11628f55a4df523b3ef60405160405180910390a4612a11600083836001611ea6565b5050565b6000604051905090565b600080fd5b600080fd5b60007fffffffff0000000000000000000000000000000000000000000000000000000082169050919050565b612a5e81612a29565b8114612a6957600080fd5b50565b600081359050612a7b81612a55565b92915050565b600060208284031215612a9757612a96612a1f565b5b6000612aa584828501612a6c565b91505092915050565b60008115159050919050565b612ac381612aae565b82525050565b6000602082019050612ade6000830184612aba565b92915050565b600081519050919050565b600082825260208201905092915050565b60005b83811015612b1e578082015181840152602081019050612b03565b60008484015250505050565b6000601f19601f8301169050919050565b6000612b4682612ae4565b612b508185612aef565b9350612b60818560208601612b00565b612b6981612b2a565b840191505092915050565b60006020820190508181036000830152612b8e8184612b3b565b905092915050565b6000819050919050565b612ba981612b96565b8114612bb457600080fd5b50565b600081359050612bc681612ba0565b92915050565b600060208284031215612be257612be1612a1f565b5b6000612bf084828501612bb7565b91505092915050565b600073ffffffffffffffffffffffffffffffffffffffff82169050919050565b6000612c2482612bf9565b9050919050565b612c3481612c19565b82525050565b6000602082019050612c4f6000830184612c2b565b92915050565b612c5e81612c19565b8114612c6957600080fd5b50565b600081359050612c7b81612c55565b92915050565b60008060408385031215612c9857612c97612a1f565b5b6000612ca685828601612c6c565b9250506020612cb785828601612bb7565b9150509250929050565b612cca81612b96565b82525050565b6000602082019050612ce56000830184612cc1565b92915050565b600080600060608486031215612d0457612d03612a1f565b5b6000612d1286828701612c6c565b9350506020612d2386828701612c6c565b9250506040612d3486828701612bb7565b9150509250925092565b60008060408385031215612d5557612d54612a1f565b5b6000612d6385828601612bb7565b9250506020612d7485828601612bb7565b9150509250929050565b600060208284031215612d9457612d93612a1f565b5b6000612da284828501612c6c565b91505092915050565b600081519050919050565b600082825260208201905092915050565b6000819050602082019050919050565b612de081612b96565b82525050565b6000612df28383612dd7565b60208301905092915050565b6000602082019050919050565b6000612e1682612dab565b612e208185612db6565b9350612e2b83612dc7565b8060005b83811015612e5c578151612e438882612de6565b9750612e4e83612dfe565b925050600181019050612e2f565b5085935050505092915050565b60006020820190508181036000830152612e838184612e0b565b905092915050565b612e9481612aae565b8114612e9f57600080fd5b50565b600081359050612eb181612e8b565b92915050565b60008060408385031215612ece57612ecd612a1f565b5b6000612edc85828601612c6c565b9250506020612eed85828601612ea2565b9150509250929050565b600080fd5b600080fd5b7f4e487b7100000000000000000000000000000000000000000000000000000000600052604160045260246000fd5b612f3982612b2a565b810181811067ffffffffffffffff82111715612f5857612f57612f01565b5b80604052505050565b6000612f6b612a15565b9050612f778282612f30565b919050565b600067ffffffffffffffff821115612f9757612f96612f01565b5b612fa082612b2a565b9050602081019050919050565b82818337600083830152505050565b6000612fcf612fca84612f7c565b612f61565b905082815260208101848484011115612feb57612fea612efc565b5b612ff6848285612fad565b509392505050565b600082601f83011261301357613012612ef7565b5b8135613023848260208601612fbc565b91505092915050565b6000806000806080858703121561304657613045612a1f565b5b600061305487828801612c6c565b945050602061306587828801612c6c565b935050604061307687828801612bb7565b925050606085013567ffffffffffffffff81111561309757613096612a24565b5b6130a387828801612ffe565b91505092959194509250565b600080604083850312156130c6576130c5612a1f565b5b60006130d485828601612c6c565b92505060206130e585828601612c6c565b9150509250929050565b7f4e487b7100000000000000000000000000000000000000000000000000000000600052602260045260246000fd5b6000600282049050600182168061313657607f821691505b602082108103613149576131486130ef565b5b50919050565b7f4552433732313a20617070726f76616c20746f2063757272656e74206f776e6560008201527f7200000000000000000000000000000000000000000000000000000000000000602082015250565b60006131ab602183612aef565b91506131b68261314f565b604082019050919050565b600060208201905081810360008301526131da8161319e565b9050919050565b7f4552433732313a20617070726f76652063616c6c6572206973206e6f7420746f60008201527f6b656e206f776e6572206f7220617070726f76656420666f7220616c6c000000602082015250565b600061323d603d83612aef565b9150613248826131e1565b604082019050919050565b6000602082019050818103600083015261326c81613230565b9050919050565b7f4552433732313a2063616c6c6572206973206e6f7420746f6b656e206f776e6560008201527f72206f7220617070726f76656400000000000000000000000000000000000000602082015250565b60006132cf602d83612aef565b91506132da82613273565b604082019050919050565b600060208201905081810360008301526132fe816132c2565b9050919050565b7f455243373231456e756d657261626c653a206f776e657220696e646578206f7560008201527f74206f6620626f756e6473000000000000000000000000000000000000000000602082015250565b6000613361602b83612aef565b915061336c82613305565b604082019050919050565b6000602082019050818103600083015261339081613354565b9050919050565b600081905092915050565b7f3c73766720786d6c6e733d27687474703a2f2f7777772e77332e6f72672f323060008201527f30302f73766727207072657365727665417370656374526174696f3d27784d6960208201527f6e794d696e206d656574272076696577426f783d27302030203335302033353060408201527f273e000000000000000000000000000000000000000000000000000000000000606082015250565b600061344a606283613397565b9150613455826133a2565b606282019050919050565b7f3c7374796c653e2e62617365207b2066696c6c3a2077686974653b20666f6e7460008201527f2d66616d696c793a2073657269663b20666f6e742d73697a653a20323570783b60208201527f207d3c2f7374796c653e00000000000000000000000000000000000000000000604082015250565b60006134e2604a83613397565b91506134ed82613460565b604a82019050919050565b7f3c726563742077696474683d273130302527206865696768743d27313030252760008201527f2066696c6c3d27626c756527202f3e0000000000000000000000000000000000602082015250565b6000613554602f83613397565b915061355f826134f8565b602f82019050919050565b7f3c7465787420783d273530252720793d273430252720636c6173733d2762617360008201527f652720646f6d696e616e742d626173656c696e653d276d6964646c652720746560208201527f78742d616e63686f723d276d6964646c65273e00000000000000000000000000604082015250565b60006135ec605383613397565b91506135f78261356a565b605382019050919050565b7f3c747370616e20793d273430252720783d27353025273e416c6368656d6f6e2060008201527f2300000000000000000000000000000000000000000000000000000000000000602082015250565b600061365e602183613397565b915061366982613602565b602182019050919050565b600061367f82612ae4565b6136898185613397565b9350613699818560208601612b00565b80840191505092915050565b7f3c2f747370616e3e000000000000000000000000000000000000000000000000600082015250565b60006136db600883613397565b91506136e6826136a5565b600882019050919050565b7f3c747370616e20793d273530252720783d27353025273e47656e65726174696f60008201527f6e20000000000000000000000000000000000000000000000000000000000000602082015250565b600061374d602283613397565b9150613758826136f1565b602282019050919050565b7f3c2f747370616e3e3c2f746578743e3c2f7376673e0000000000000000000000600082015250565b6000613799601583613397565b91506137a482613763565b601582019050919050565b60006137ba8261343d565b91506137c5826134d5565b91506137d082613547565b91506137db826135df565b91506137e682613651565b91506137f28285613674565b91506137fd826136ce565b915061380882613740565b91506138148284613674565b915061381f8261378c565b91508190509392505050565b7f7b226e616d65223a2022416c6368656d6f6e2023000000000000000000000000600082015250565b6000613861601483613397565b915061386c8261382b565b601482019050919050565b7f222c20226465736372697074696f6e223a2022416e20696e2d67616d65206d6f60008201527f6e73746572222c2022696d616765223a2022646174613a696d6167652f73766760208201527f2b786d6c3b6261736536342c0000000000000000000000000000000000000000604082015250565b60006138f9604c83613397565b915061390482613877565b604c82019050919050565b7f222c202261747472696275746573223a205b7b2274726169745f74797065223a60008201527f202247656e65726174696f6e222c202276616c7565223a202200000000000000602082015250565b600061396b603983613397565b91506139768261390f565b603982019050919050565b7f227d5d7d00000000000000000000000000000000000000000000000000000000600082015250565b60006139b7600483613397565b91506139c282613981565b600482019050919050565b60006139d882613854565b91506139e48286613674565b91506139ef826138ec565b91506139fb8285613674565b9150613a068261395e565b9150613a128284613674565b9150613a1d826139aa565b9150819050949350505050565b7f646174613a6170706c69636174696f6e2f6a736f6e3b6261736536342c000000600082015250565b6000613a60601d83613397565b9150613a6b82613a2a565b601d82019050919050565b6000613a8182613a53565b9150613a8d8284613674565b915081905092915050565b7f4e6f206574686572206c65667420746f20776974686472617700000000000000600082015250565b6000613ace601983612aef565b9150613ad982613a98565b602082019050919050565b60006020820190508181036000830152613afd81613ac1565b9050919050565b600081905092915050565b50565b6000613b1f600083613b04565b9150613b2a82613b0f565b600082019050919050565b6000613b4082613b12565b9150819050919050565b7f5472616e73666572206661696c65642e00000000000000000000000000000000600082015250565b6000613b80601083612aef565b9150613b8b82613b4a565b602082019050919050565b60006020820190508181036000830152613baf81613b73565b9050919050565b7f455243373231456e756d657261626c653a20676c6f62616c20696e646578206f60008201527f7574206f6620626f756e64730000000000000000000000000000000000000000602082015250565b6000613c12602c83612aef565b9150613c1d82613bb6565b604082019050919050565b60006020820190508181036000830152613c4181613c05565b9050919050565b7f4e487b7100000000000000000000000000000000000000000000000000000000600052603260045260246000fd5b7f4552433732313a20696e76616c696420746f6b656e2049440000000000000000600082015250565b6000613cad601883612aef565b9150613cb882613c77565b602082019050919050565b60006020820190508181036000830152613cdc81613ca0565b9050919050565b7f4552433732313a2061646472657373207a65726f206973206e6f74206120766160008201527f6c6964206f776e65720000000000000000000000000000000000000000000000602082015250565b6000613d3f602983612aef565b9150613d4a82613ce3565b604082019050919050565b60006020820190508181036000830152613d6e81613d32565b9050919050565b7f4e487b7100000000000000000000000000000000000000000000000000000000600052601160045260246000fd5b6000613daf82612b96565b91507fffffffffffffffffffffffffffffffffffffffffffffffffffffffffffffffff8203613de157613de0613d75565b5b600182019050919050565b7f506172656e7473206d75737420626520646966666572656e7400000000000000600082015250565b6000613e22601983612aef565b9150613e2d82613dec565b602082019050919050565b60006020820190508181036000830152613e5181613e15565b9050919050565b7f53656e64657220646f65736e2774206f776e204e465473000000000000000000600082015250565b6000613e8e601783612aef565b9150613e9982613e58565b602082019050919050565b60006020820190508181036000830152613ebd81613e81565b9050919050565b6000613ecf82612b96565b9150613eda83612b96565b9250828201905080821115613ef257613ef1613d75565b5b92915050565b7f4e6f7420656e6f75676820657468657220746f2070757263686173652067656e60008201527f65736973204e46542e0000000000000000000000000000000000000000000000602082015250565b6000613f54602983612aef565b9150613f5f82613ef8565b604082019050919050565b60006020820190508181036000830152613f8381613f47565b9050919050565b7f4f776e61626c653a206e6577206f776e657220697320746865207a65726f206160008201527f6464726573730000000000000000000000000000000000000000000000000000602082015250565b6000613fe6602683612aef565b9150613ff182613f8a565b604082019050919050565b6000602082019050818103600083015261401581613fd9565b9050919050565b7f4552433732313a207472616e736665722066726f6d20696e636f72726563742060008201527f6f776e6572000000000000000000000000000000000000000000000000000000602082015250565b6000614078602583612aef565b91506140838261401c565b604082019050919050565b600060208201905081810360008301526140a78161406b565b9050919050565b7f4552433732313a207472616e7366657220746f20746865207a65726f2061646460008201527f7265737300000000000000000000000000000000000000000000000000000000602082015250565b600061410a602483612aef565b9150614115826140ae565b604082019050919050565b60006020820190508181036000830152614139816140fd565b9050919050565b7f4e487b7100000000000000000000000000000000000000000000000000000000600052601260045260246000fd5b600061417a82612b96565b915061418583612b96565b92508261419557614194614140565b5b828204905092915050565b60006141ab82612b96565b91506141b683612b96565b92508282026141c481612b96565b915082820484148315176141db576141da613d75565b5b5092915050565b7f4f776e61626c653a2063616c6c6572206973206e6f7420746865206f776e6572600082015250565b6000614218602083612aef565b9150614223826141e2565b602082019050919050565b600060208201905081810360008301526142478161420b565b9050919050565b7f4552433732313a20617070726f766520746f2063616c6c657200000000000000600082015250565b6000614284601983612aef565b915061428f8261424e565b602082019050919050565b600060208201905081810360008301526142b381614277565b9050919050565b7f4552433732313a207472616e7366657220746f206e6f6e20455243373231526560008201527f63656976657220696d706c656d656e7465720000000000000000000000000000602082015250565b6000614316603283612aef565b9150614321826142ba565b604082019050919050565b6000602082019050818103600083015261434581614309565b9050919050565b60006143588285613674565b91506143648284613674565b91508190509392505050565b600081519050919050565b600082825260208201905092915050565b600061439782614370565b6143a1818561437b565b93506143b1818560208601612b00565b6143ba81612b2a565b840191505092915050565b60006080820190506143da6000830187612c2b565b6143e76020830186612c2b565b6143f46040830185612cc1565b8181036060830152614406818461438c565b905095945050505050565b60008151905061442081612a55565b92915050565b60006020828403121561443c5761443b612a1f565b5b600061444a84828501614411565b91505092915050565b7f45524337323155524953746f726167653a2055524920736574206f66206e6f6e60008201527f6578697374656e7420746f6b656e000000000000000000000000000000000000602082015250565b60006144af602e83612aef565b91506144ba82614453565b604082019050919050565b600060208201905081810360008301526144de816144a2565b9050919050565b60008190508160005260206000209050919050565b60006020601f8301049050919050565b600082821b905092915050565b6000600883026145477fffffffffffffffffffffffffffffffffffffffffffffffffffffffffffffffff8261450a565b614551868361450a565b95508019841693508086168417925050509392505050565b6000819050919050565b600061458e61458961458484612b96565b614569565b612b96565b9050919050565b6000819050919050565b6145a883614573565b6145bc6145b482614595565b848454614517565b825550505050565b600090565b6145d16145c4565b6145dc81848461459f565b505050565b5b81811015614600576145f56000826145c9565b6001810190506145e2565b5050565b601f82111561464557614616816144e5565b61461f846144fa565b8101602085101561462e578190505b61464261463a856144fa565b8301826145e1565b50505b505050565b600082821c905092915050565b60006146686000198460080261464a565b1980831691505092915050565b60006146818383614657565b9150826002028217905092915050565b61469a82612ae4565b67ffffffffffffffff8111156146b3576146b2612f01565b5b6146bd825461311e565b6146c8828285614604565b600060209050601f8311600181146146fb57600084156146e9578287015190505b6146f38582614675565b86555061475b565b601f198416614709866144e5565b60005b828110156147315784890151825560018201915060208501945060208101905061470c565b8683101561474e578489015161474a601f891682614657565b8355505b6001600288020188555050505b505050505050565b7f455243373231456e756d657261626c653a20636f6e736563757469766520747260008201527f616e7366657273206e6f7420737570706f727465640000000000000000000000602082015250565b60006147bf603583612aef565b91506147ca82614763565b604082019050919050565b600060208201905081810360008301526147ee816147b2565b9050919050565b600061480082612b96565b915061480b83612b96565b925082820390508181111561482357614822613d75565b5b92915050565b7f4e487b7100000000000000000000000000000000000000000000000000000000600052603160045260246000fd5b7f4552433732313a206d696e7420746f20746865207a65726f2061646472657373600082015250565b600061488e602083612aef565b915061489982614858565b602082019050919050565b600060208201905081810360008301526148bd81614881565b9050919050565b7f4552433732313a20746f6b656e20616c7265616479206d696e74656400000000600082015250565b60006148fa601c83612aef565b9150614905826148c4565b602082019050919050565b60006020820190508181036000830152614929816148ed565b905091905056fe4142434445464748494a4b4c4d4e4f505152535455565758595a6162636465666768696a6b6c6d6e6f707172737475767778797a303132333435363738392b2fa26469706673582212205c8b19d46259056a781f235d672a4339fd1ad3c0472a4c579cbee156c39e7c5264736f6c63430008120033",
  "linkReferences": {},
  "deployedLinkReferences": {}
}